{
  "_format": "hh-sol-artifact-1",
  "contractName": "CryptoGummy",
  "sourceName": "contracts/CryptoGummy.sol",
  "abi": [
    {
      "inputs": [],
      "stateMutability": "payable",
      "type": "constructor"
    },
    {
      "anonymous": false,
      "inputs": [
        {
          "indexed": false,
          "internalType": "address",
          "name": "buyer",
          "type": "address"
        },
        {
          "indexed": false,
          "internalType": "string",
          "name": "message",
          "type": "string"
        },
        {
          "indexed": false,
          "internalType": "uint256",
          "name": "timestamp",
          "type": "uint256"
        },
        {
          "indexed": false,
          "internalType": "uint256",
          "name": "value",
          "type": "uint256"
        },
        {
          "indexed": false,
          "internalType": "string",
          "name": "name",
          "type": "string"
        }
      ],
      "name": "newPurchase",
      "type": "event"
    },
    {
      "inputs": [],
      "name": "getAllPurchases",
      "outputs": [
        {
          "components": [
            {
              "internalType": "address",
              "name": "buyer",
              "type": "address"
            },
            {
              "internalType": "string",
              "name": "message",
              "type": "string"
            },
            {
              "internalType": "uint256",
              "name": "timestamp",
              "type": "uint256"
            },
            {
              "internalType": "uint256",
              "name": "value",
              "type": "uint256"
            },
            {
              "internalType": "string",
              "name": "name",
              "type": "string"
            }
          ],
          "internalType": "struct CryptoGummy.Purchase[]",
          "name": "",
          "type": "tuple[]"
        }
      ],
      "stateMutability": "view",
      "type": "function"
    },
    {
      "inputs": [
        {
          "internalType": "string",
          "name": "_message",
          "type": "string"
        },
        {
          "internalType": "uint256",
          "name": "_timestamp",
          "type": "uint256"
        },
        {
          "internalType": "string",
          "name": "_name",
          "type": "string"
        }
      ],
      "name": "purchase",
      "outputs": [],
      "stateMutability": "payable",
      "type": "function"
    },
    {
      "inputs": [
        {
          "internalType": "uint256",
          "name": "amount",
          "type": "uint256"
        }
      ],
      "name": "withdraw",
      "outputs": [],
      "stateMutability": "nonpayable",
      "type": "function"
    },
    {
      "inputs": [],
      "name": "withdrawAll",
      "outputs": [],
      "stateMutability": "nonpayable",
      "type": "function"
    },
    {
      "inputs": [
        {
          "internalType": "uint256",
          "name": "amount",
          "type": "uint256"
        },
        {
          "internalType": "address payable",
          "name": "to",
          "type": "address"
        }
      ],
      "name": "withdrawTo",
      "outputs": [],
      "stateMutability": "nonpayable",
      "type": "function"
    }
  ],
  "bytecode": "0x608060405233600160006101000a81548173ffffffffffffffffffffffffffffffffffffffff021916908373ffffffffffffffffffffffffffffffffffffffff160217905550610df1806100546000396000f3fe60806040526004361061004a5760003560e01c80632e1a7d4d1461004f57806350b3967d146100785780638018d94d146100a3578063853828b6146100bf578063c86283c8146100d6575b600080fd5b34801561005b57600080fd5b5061007660048036038101906100719190610899565b6100ff565b005b34801561008457600080fd5b5061008d610208565b60405161009a9190610b53565b60405180910390f35b6100bd60048036038101906100b8919061081a565b6103f5565b005b3480156100cb57600080fd5b506100d4610538565b005b3480156100e257600080fd5b506100fd60048036038101906100f891906108c2565b6105fd565b005b600160009054906101000a900473ffffffffffffffffffffffffffffffffffffffff1673ffffffffffffffffffffffffffffffffffffffff163373ffffffffffffffffffffffffffffffffffffffff161461015957600080fd5b4781111561019c576040517f08c379a000000000000000000000000000000000000000000000000000000000815260040161019390610b75565b60405180910390fd5b600160009054906101000a900473ffffffffffffffffffffffffffffffffffffffff1673ffffffffffffffffffffffffffffffffffffffff166108fc829081150290604051600060405180830381858888f19350505050158015610204573d6000803e3d6000fd5b5050565b60606000805480602002602001604051908101604052809291908181526020016000905b828210156103ec57838290600052602060002090600502016040518060a00160405290816000820160009054906101000a900473ffffffffffffffffffffffffffffffffffffffff1673ffffffffffffffffffffffffffffffffffffffff1673ffffffffffffffffffffffffffffffffffffffff1681526020016001820180546102b590610cec565b80601f01602080910402602001604051908101604052809291908181526020018280546102e190610cec565b801561032e5780601f106103035761010080835404028352916020019161032e565b820191906000526020600020905b81548152906001019060200180831161031157829003601f168201915b50505050508152602001600282015481526020016003820154815260200160048201805461035b90610cec565b80601f016020809104026020016040519081016040528092919081815260200182805461038790610cec565b80156103d45780601f106103a9576101008083540402835291602001916103d4565b820191906000526020600020905b8154815290600101906020018083116103b757829003601f168201915b5050505050815250508152602001906001019061022c565b50505050905090565b60006040518060a001604052803373ffffffffffffffffffffffffffffffffffffffff16815260200185815260200184815260200134815260200183815250908060018154018082558091505060019003906000526020600020906005020160009091909190915060008201518160000160006101000a81548173ffffffffffffffffffffffffffffffffffffffff021916908373ffffffffffffffffffffffffffffffffffffffff16021790555060208201518160010190805190602001906104c09291906106e5565b50604082015181600201556060820151816003015560808201518160040190805190602001906104f19291906106e5565b5050507f852fc4423cbd03953ab9aaec1171c7870e286d8312aeb76ab86c5bc44fd2c7dc338484348560405161052b959493929190610af2565b60405180910390a1505050565b600160009054906101000a900473ffffffffffffffffffffffffffffffffffffffff1673ffffffffffffffffffffffffffffffffffffffff163373ffffffffffffffffffffffffffffffffffffffff161461059257600080fd5b600160009054906101000a900473ffffffffffffffffffffffffffffffffffffffff1673ffffffffffffffffffffffffffffffffffffffff166108fc479081150290604051600060405180830381858888f193505050501580156105fa573d6000803e3d6000fd5b50565b600160009054906101000a900473ffffffffffffffffffffffffffffffffffffffff1673ffffffffffffffffffffffffffffffffffffffff163373ffffffffffffffffffffffffffffffffffffffff161461065757600080fd5b4782111561069a576040517f08c379a000000000000000000000000000000000000000000000000000000000815260040161069190610b75565b60405180910390fd5b8073ffffffffffffffffffffffffffffffffffffffff166108fc839081150290604051600060405180830381858888f193505050501580156106e0573d6000803e3d6000fd5b505050565b8280546106f190610cec565b90600052602060002090601f016020900481019282610713576000855561075a565b82601f1061072c57805160ff191683800117855561075a565b8280016001018555821561075a579182015b8281111561075957825182559160200191906001019061073e565b5b509050610767919061076b565b5090565b5b8082111561078457600081600090555060010161076c565b5090565b600061079b61079684610bc6565b610b95565b9050828152602081018484840111156107b357600080fd5b6107be848285610caa565b509392505050565b6000813590506107d581610d8d565b92915050565b600082601f8301126107ec57600080fd5b81356107fc848260208601610788565b91505092915050565b60008135905061081481610da4565b92915050565b60008060006060848603121561082f57600080fd5b600084013567ffffffffffffffff81111561084957600080fd5b610855868287016107db565b935050602061086686828701610805565b925050604084013567ffffffffffffffff81111561088357600080fd5b61088f868287016107db565b9150509250925092565b6000602082840312156108ab57600080fd5b60006108b984828501610805565b91505092915050565b600080604083850312156108d557600080fd5b60006108e385828601610805565b92505060206108f4858286016107c6565b9150509250929050565b600061090a8383610a57565b905092915050565b61091b81610c5c565b82525050565b61092a81610c5c565b82525050565b600061093b82610c06565b6109458185610c29565b93508360208202850161095785610bf6565b8060005b85811015610993578484038952815161097485826108fe565b945061097f83610c1c565b925060208a0199505060018101905061095b565b50829750879550505050505092915050565b60006109b082610c11565b6109ba8185610c3a565b93506109ca818560208601610cb9565b6109d381610d7c565b840191505092915050565b60006109e982610c11565b6109f38185610c4b565b9350610a03818560208601610cb9565b610a0c81610d7c565b840191505092915050565b6000610a24601683610c4b565b91507f416d6f756e7420657863656564732062616c616e6365000000000000000000006000830152602082019050919050565b600060a083016000830151610a6f6000860182610912565b5060208301518482036020860152610a8782826109a5565b9150506040830151610a9c6040860182610ad4565b506060830151610aaf6060860182610ad4565b5060808301518482036080860152610ac782826109a5565b9150508091505092915050565b610add81610ca0565b82525050565b610aec81610ca0565b82525050565b600060a082019050610b076000830188610921565b8181036020830152610b1981876109de565b9050610b286040830186610ae3565b610b356060830185610ae3565b8181036080830152610b4781846109de565b90509695505050505050565b60006020820190508181036000830152610b6d8184610930565b905092915050565b60006020820190508181036000830152610b8e81610a17565b9050919050565b6000604051905081810181811067ffffffffffffffff82111715610bbc57610bbb610d4d565b5b8060405250919050565b600067ffffffffffffffff821115610be157610be0610d4d565b5b601f19601f8301169050602081019050919050565b6000819050602082019050919050565b600081519050919050565b600081519050919050565b6000602082019050919050565b600082825260208201905092915050565b600082825260208201905092915050565b600082825260208201905092915050565b6000610c6782610c80565b9050919050565b6000610c7982610c80565b9050919050565b600073ffffffffffffffffffffffffffffffffffffffff82169050919050565b6000819050919050565b82818337600083830152505050565b60005b83811015610cd7578082015181840152602081019050610cbc565b83811115610ce6576000848401525b50505050565b60006002820490506001821680610d0457607f821691505b60208210811415610d1857610d17610d1e565b5b50919050565b7f4e487b7100000000000000000000000000000000000000000000000000000000600052602260045260246000fd5b7f4e487b7100000000000000000000000000000000000000000000000000000000600052604160045260246000fd5b6000601f19601f8301169050919050565b610d9681610c6e565b8114610da157600080fd5b50565b610dad81610ca0565b8114610db857600080fd5b5056fea264697066735822122017e408ef0b3e3db18a8dd9208597c73f57575e7c10c5f38ccb916e4563f09f4764736f6c63430008000033",
  "linkReferences": {},
  "deployedLinkReferences": {}
}