{
  "_format": "hh-sol-artifact-1",
  "contractName": "CryptoGummy",
  "sourceName": "contracts/CryptoGummy.sol",
  "abi": [
    {
      "inputs": [],
      "stateMutability": "payable",
      "type": "constructor"
    },
    {
      "anonymous": false,
      "inputs": [
        {
          "indexed": true,
          "internalType": "address",
          "name": "previousOwner",
          "type": "address"
        },
        {
          "indexed": true,
          "internalType": "address",
          "name": "newOwner",
          "type": "address"
        }
      ],
      "name": "OwnershipTransferred",
      "type": "event"
    },
    {
      "anonymous": false,
      "inputs": [
        {
          "indexed": false,
          "internalType": "address",
          "name": "buyer",
          "type": "address"
        },
        {
          "indexed": false,
          "internalType": "string",
          "name": "message",
          "type": "string"
        },
        {
          "indexed": false,
          "internalType": "uint256",
          "name": "timestamp",
          "type": "uint256"
        },
        {
          "indexed": false,
          "internalType": "uint256",
          "name": "value",
          "type": "uint256"
        },
        {
          "indexed": false,
          "internalType": "string",
          "name": "name",
          "type": "string"
        }
      ],
      "name": "newPurchase",
      "type": "event"
    },
    {
      "inputs": [],
      "name": "getAllPurchases",
      "outputs": [
        {
          "components": [
            {
              "internalType": "address",
              "name": "buyer",
              "type": "address"
            },
            {
              "internalType": "string",
              "name": "message",
              "type": "string"
            },
            {
              "internalType": "uint256",
              "name": "timestamp",
              "type": "uint256"
            },
            {
              "internalType": "uint256",
              "name": "value",
              "type": "uint256"
            },
            {
              "internalType": "string",
              "name": "name",
              "type": "string"
            }
          ],
          "internalType": "struct CryptoGummy.Purchase[]",
          "name": "",
          "type": "tuple[]"
        }
      ],
      "stateMutability": "view",
      "type": "function"
    },
    {
      "inputs": [],
      "name": "owner",
      "outputs": [
        {
          "internalType": "address",
          "name": "",
          "type": "address"
        }
      ],
      "stateMutability": "view",
      "type": "function"
    },
    {
      "inputs": [
        {
          "internalType": "string",
          "name": "_message",
          "type": "string"
        },
        {
          "internalType": "uint256",
          "name": "_timestamp",
          "type": "uint256"
        },
        {
          "internalType": "string",
          "name": "_name",
          "type": "string"
        }
      ],
      "name": "purchase",
      "outputs": [],
      "stateMutability": "payable",
      "type": "function"
    },
    {
      "inputs": [],
      "name": "renounceOwnership",
      "outputs": [],
      "stateMutability": "nonpayable",
      "type": "function"
    },
    {
      "inputs": [
        {
          "internalType": "address",
          "name": "newOwner",
          "type": "address"
        }
      ],
      "name": "transferOwnership",
      "outputs": [],
      "stateMutability": "nonpayable",
      "type": "function"
    },
    {
      "inputs": [
        {
          "internalType": "uint256",
          "name": "amount",
          "type": "uint256"
        }
      ],
      "name": "withdraw",
      "outputs": [],
      "stateMutability": "nonpayable",
      "type": "function"
    },
    {
      "inputs": [],
      "name": "withdrawAll",
      "outputs": [],
      "stateMutability": "nonpayable",
      "type": "function"
    },
    {
      "inputs": [
        {
          "internalType": "uint256",
          "name": "amount",
          "type": "uint256"
        },
        {
          "internalType": "address payable",
          "name": "to",
          "type": "address"
        }
      ],
      "name": "withdrawTo",
      "outputs": [],
      "stateMutability": "nonpayable",
      "type": "function"
    }
  ],
  "bytecode": "0x608060405262000024620000186200005960201b60201c565b6200006160201b60201c565b620000536040518060600160405280602181526020016200166b602191396200012560201b620009901760201c565b620002b9565b600033905090565b60008060009054906101000a900473ffffffffffffffffffffffffffffffffffffffff169050816000806101000a81548173ffffffffffffffffffffffffffffffffffffffff021916908373ffffffffffffffffffffffffffffffffffffffff1602179055508173ffffffffffffffffffffffffffffffffffffffff168173ffffffffffffffffffffffffffffffffffffffff167f8be0079c531659141344cd1fd0a4f28419497f9722a3daafe3b4186f6b6457e060405160405180910390a35050565b620001c5816040516024016200013c919062000232565b6040516020818303038152906040527f41304fac000000000000000000000000000000000000000000000000000000007bffffffffffffffffffffffffffffffffffffffffffffffffffffffff19166020820180517bffffffffffffffffffffffffffffffffffffffffffffffffffffffff8381831617835250505050620001c860201b60201c565b50565b60008151905060006a636f6e736f6c652e6c6f679050602083016000808483855afa5050505050565b6000620001fe8262000256565b6200020a818562000261565b93506200021c81856020860162000272565b6200022781620002a8565b840191505092915050565b600060208201905081810360008301526200024e8184620001f1565b905092915050565b600081519050919050565b600082825260208201905092915050565b60005b838110156200029257808201518184015260208101905062000275565b83811115620002a2576000848401525b50505050565b6000601f19601f8301169050919050565b6113a280620002c96000396000f3fe60806040526004361061007b5760003560e01c8063853828b61161004e578063853828b6146101075780638da5cb5b1461011e578063c86283c814610149578063f2fde38b146101725761007b565b80632e1a7d4d1461008057806350b3967d146100a9578063715018a6146100d45780638018d94d146100eb575b600080fd5b34801561008c57600080fd5b506100a760048036038101906100a29190610d10565b61019b565b005b3480156100b557600080fd5b506100be6102c6565b6040516100cb919061108b565b60405180910390f35b3480156100e057600080fd5b506100e96104b3565b005b61010560048036038101906101009190610c91565b61053b565b005b34801561011357600080fd5b5061011c61067e565b005b34801561012a57600080fd5b50610133610765565b604051610140919061100f565b60405180910390f35b34801561015557600080fd5b50610170600480360381019061016b9190610d39565b61078e565b005b34801561017e57600080fd5b5061019960048036038101906101949190610c68565b610898565b005b6101a3610a29565b73ffffffffffffffffffffffffffffffffffffffff166101c1610765565b73ffffffffffffffffffffffffffffffffffffffff1614610217576040517f08c379a000000000000000000000000000000000000000000000000000000000815260040161020e9061110f565b60405180910390fd5b4781111561025a576040517f08c379a0000000000000000000000000000000000000000000000000000000008152600401610251906110cf565b60405180910390fd5b600260009054906101000a900473ffffffffffffffffffffffffffffffffffffffff1673ffffffffffffffffffffffffffffffffffffffff166108fc829081150290604051600060405180830381858888f193505050501580156102c2573d6000803e3d6000fd5b5050565b60606001805480602002602001604051908101604052809291908181526020016000905b828210156104aa57838290600052602060002090600502016040518060a00160405290816000820160009054906101000a900473ffffffffffffffffffffffffffffffffffffffff1673ffffffffffffffffffffffffffffffffffffffff1673ffffffffffffffffffffffffffffffffffffffff16815260200160018201805461037390611286565b80601f016020809104026020016040519081016040528092919081815260200182805461039f90611286565b80156103ec5780601f106103c1576101008083540402835291602001916103ec565b820191906000526020600020905b8154815290600101906020018083116103cf57829003601f168201915b50505050508152602001600282015481526020016003820154815260200160048201805461041990611286565b80601f016020809104026020016040519081016040528092919081815260200182805461044590611286565b80156104925780601f1061046757610100808354040283529160200191610492565b820191906000526020600020905b81548152906001019060200180831161047557829003601f168201915b505050505081525050815260200190600101906102ea565b50505050905090565b6104bb610a29565b73ffffffffffffffffffffffffffffffffffffffff166104d9610765565b73ffffffffffffffffffffffffffffffffffffffff161461052f576040517f08c379a00000000000000000000000000000000000000000000000000000000081526004016105269061110f565b60405180910390fd5b6105396000610a31565b565b60016040518060a001604052803373ffffffffffffffffffffffffffffffffffffffff16815260200185815260200184815260200134815260200183815250908060018154018082558091505060019003906000526020600020906005020160009091909190915060008201518160000160006101000a81548173ffffffffffffffffffffffffffffffffffffffff021916908373ffffffffffffffffffffffffffffffffffffffff1602179055506020820151816001019080519060200190610606929190610b1e565b5060408201518160020155606082015181600301556080820151816004019080519060200190610637929190610b1e565b5050507f852fc4423cbd03953ab9aaec1171c7870e286d8312aeb76ab86c5bc44fd2c7dc338484348560405161067195949392919061102a565b60405180910390a1505050565b610686610a29565b73ffffffffffffffffffffffffffffffffffffffff166106a4610765565b73ffffffffffffffffffffffffffffffffffffffff16146106fa576040517f08c379a00000000000000000000000000000000000000000000000000000000081526004016106f19061110f565b60405180910390fd5b600260009054906101000a900473ffffffffffffffffffffffffffffffffffffffff1673ffffffffffffffffffffffffffffffffffffffff166108fc479081150290604051600060405180830381858888f19350505050158015610762573d6000803e3d6000fd5b50565b60008060009054906101000a900473ffffffffffffffffffffffffffffffffffffffff16905090565b610796610a29565b73ffffffffffffffffffffffffffffffffffffffff166107b4610765565b73ffffffffffffffffffffffffffffffffffffffff161461080a576040517f08c379a00000000000000000000000000000000000000000000000000000000081526004016108019061110f565b60405180910390fd5b4782111561084d576040517f08c379a0000000000000000000000000000000000000000000000000000000008152600401610844906110cf565b60405180910390fd5b8073ffffffffffffffffffffffffffffffffffffffff166108fc839081150290604051600060405180830381858888f19350505050158015610893573d6000803e3d6000fd5b505050565b6108a0610a29565b73ffffffffffffffffffffffffffffffffffffffff166108be610765565b73ffffffffffffffffffffffffffffffffffffffff1614610914576040517f08c379a000000000000000000000000000000000000000000000000000000000815260040161090b9061110f565b60405180910390fd5b600073ffffffffffffffffffffffffffffffffffffffff168173ffffffffffffffffffffffffffffffffffffffff161415610984576040517f08c379a000000000000000000000000000000000000000000000000000000000815260040161097b906110ef565b60405180910390fd5b61098d81610a31565b50565b610a26816040516024016109a491906110ad565b6040516020818303038152906040527f41304fac000000000000000000000000000000000000000000000000000000007bffffffffffffffffffffffffffffffffffffffffffffffffffffffff19166020820180517bffffffffffffffffffffffffffffffffffffffffffffffffffffffff8381831617835250505050610af5565b50565b600033905090565b60008060009054906101000a900473ffffffffffffffffffffffffffffffffffffffff169050816000806101000a81548173ffffffffffffffffffffffffffffffffffffffff021916908373ffffffffffffffffffffffffffffffffffffffff1602179055508173ffffffffffffffffffffffffffffffffffffffff168173ffffffffffffffffffffffffffffffffffffffff167f8be0079c531659141344cd1fd0a4f28419497f9722a3daafe3b4186f6b6457e060405160405180910390a35050565b60008151905060006a636f6e736f6c652e6c6f679050602083016000808483855afa5050505050565b828054610b2a90611286565b90600052602060002090601f016020900481019282610b4c5760008555610b93565b82601f10610b6557805160ff1916838001178555610b93565b82800160010185558215610b93579182015b82811115610b92578251825591602001919060010190610b77565b5b509050610ba09190610ba4565b5090565b5b80821115610bbd576000816000905550600101610ba5565b5090565b6000610bd4610bcf84611160565b61112f565b905082815260208101848484011115610bec57600080fd5b610bf7848285611244565b509392505050565b600081359050610c0e81611327565b92915050565b600081359050610c238161133e565b92915050565b600082601f830112610c3a57600080fd5b8135610c4a848260208601610bc1565b91505092915050565b600081359050610c6281611355565b92915050565b600060208284031215610c7a57600080fd5b6000610c8884828501610bff565b91505092915050565b600080600060608486031215610ca657600080fd5b600084013567ffffffffffffffff811115610cc057600080fd5b610ccc86828701610c29565b9350506020610cdd86828701610c53565b925050604084013567ffffffffffffffff811115610cfa57600080fd5b610d0686828701610c29565b9150509250925092565b600060208284031215610d2257600080fd5b6000610d3084828501610c53565b91505092915050565b60008060408385031215610d4c57600080fd5b6000610d5a85828601610c53565b9250506020610d6b85828601610c14565b9150509250929050565b6000610d818383610f74565b905092915050565b610d92816111f6565b82525050565b610da1816111f6565b82525050565b6000610db2826111a0565b610dbc81856111c3565b935083602082028501610dce85611190565b8060005b85811015610e0a5784840389528151610deb8582610d75565b9450610df6836111b6565b925060208a01995050600181019050610dd2565b50829750879550505050505092915050565b6000610e27826111ab565b610e3181856111d4565b9350610e41818560208601611253565b610e4a81611316565b840191505092915050565b6000610e60826111ab565b610e6a81856111e5565b9350610e7a818560208601611253565b610e8381611316565b840191505092915050565b6000610e9b6016836111e5565b91507f416d6f756e7420657863656564732062616c616e6365000000000000000000006000830152602082019050919050565b6000610edb6026836111e5565b91507f4f776e61626c653a206e6577206f776e657220697320746865207a65726f206160008301527f64647265737300000000000000000000000000000000000000000000000000006020830152604082019050919050565b6000610f416020836111e5565b91507f4f776e61626c653a2063616c6c6572206973206e6f7420746865206f776e65726000830152602082019050919050565b600060a083016000830151610f8c6000860182610d89565b5060208301518482036020860152610fa48282610e1c565b9150506040830151610fb96040860182610ff1565b506060830151610fcc6060860182610ff1565b5060808301518482036080860152610fe48282610e1c565b9150508091505092915050565b610ffa8161123a565b82525050565b6110098161123a565b82525050565b60006020820190506110246000830184610d98565b92915050565b600060a08201905061103f6000830188610d98565b81810360208301526110518187610e55565b90506110606040830186611000565b61106d6060830185611000565b818103608083015261107f8184610e55565b90509695505050505050565b600060208201905081810360008301526110a58184610da7565b905092915050565b600060208201905081810360008301526110c78184610e55565b905092915050565b600060208201905081810360008301526110e881610e8e565b9050919050565b6000602082019050818103600083015261110881610ece565b9050919050565b6000602082019050818103600083015261112881610f34565b9050919050565b6000604051905081810181811067ffffffffffffffff82111715611156576111556112e7565b5b8060405250919050565b600067ffffffffffffffff82111561117b5761117a6112e7565b5b601f19601f8301169050602081019050919050565b6000819050602082019050919050565b600081519050919050565b600081519050919050565b6000602082019050919050565b600082825260208201905092915050565b600082825260208201905092915050565b600082825260208201905092915050565b60006112018261121a565b9050919050565b60006112138261121a565b9050919050565b600073ffffffffffffffffffffffffffffffffffffffff82169050919050565b6000819050919050565b82818337600083830152505050565b60005b83811015611271578082015181840152602081019050611256565b83811115611280576000848401525b50505050565b6000600282049050600182168061129e57607f821691505b602082108114156112b2576112b16112b8565b5b50919050565b7f4e487b7100000000000000000000000000000000000000000000000000000000600052602260045260246000fd5b7f4e487b7100000000000000000000000000000000000000000000000000000000600052604160045260246000fd5b6000601f19601f8301169050919050565b611330816111f6565b811461133b57600080fd5b50565b61134781611208565b811461135257600080fd5b50565b61135e8161123a565b811461136957600080fd5b5056fea264697066735822122016afaaf36104d7af75556830636f9a387c4321b695f500dbdb2813524504284f64736f6c63430008000033596f796f796f2c20636f6e737472756374656420636f6e74726163742068657265",
  "linkReferences": {},
  "deployedLinkReferences": {}
}